{
  "_format": "hh-sol-artifact-1",
  "contractName": "Lottery",
  "sourceName": "contracts/Lottery.sol",
  "abi": [
    {
      "inputs": [],
      "stateMutability": "nonpayable",
      "type": "constructor"
    },
    {
      "inputs": [],
      "name": "enter",
      "outputs": [],
      "stateMutability": "payable",
      "type": "function"
    },
    {
      "inputs": [],
      "name": "getPlayers",
      "outputs": [
        {
          "internalType": "address[]",
          "name": "",
          "type": "address[]"
        }
      ],
      "stateMutability": "view",
      "type": "function"
    },
    {
      "inputs": [],
      "name": "getWinners",
      "outputs": [
        {
          "internalType": "address",
          "name": "",
          "type": "address"
        }
      ],
      "stateMutability": "view",
      "type": "function"
    },
    {
      "inputs": [],
      "name": "manager",
      "outputs": [
        {
          "internalType": "address",
          "name": "",
          "type": "address"
        }
      ],
      "stateMutability": "view",
      "type": "function"
    },
    {
      "inputs": [],
      "name": "pickWinner",
      "outputs": [
        {
          "internalType": "address",
          "name": "",
          "type": "address"
        }
      ],
      "stateMutability": "nonpayable",
      "type": "function"
    },
    {
      "inputs": [
        {
          "internalType": "uint256",
          "name": "",
          "type": "uint256"
        }
      ],
      "name": "players",
      "outputs": [
        {
          "internalType": "address",
          "name": "",
          "type": "address"
        }
      ],
      "stateMutability": "view",
      "type": "function"
    },
    {
      "inputs": [],
      "name": "to",
      "outputs": [
        {
          "internalType": "address payable",
          "name": "",
          "type": "address"
        }
      ],
      "stateMutability": "view",
      "type": "function"
    }
  ],
  "bytecode": "0x608060405234801561001057600080fd5b50336000806101000a81548173ffffffffffffffffffffffffffffffffffffffff021916908373ffffffffffffffffffffffffffffffffffffffff160217905550610a42806100606000396000f3fe6080604052600436106100705760003560e01c80638b5b9ccc1161004e5780638b5b9ccc146100f6578063df15c37e14610121578063e97dcb621461014c578063f71d96cb1461015657610070565b80631315198114610075578063481c6a75146100a05780635d495aea146100cb575b600080fd5b34801561008157600080fd5b5061008a610193565b6040516100979190610835565b60405180910390f35b3480156100ac57600080fd5b506100b56101b9565b6040516100c2919061081a565b60405180910390f35b3480156100d757600080fd5b506100e06101dd565b6040516100ed919061081a565b60405180910390f35b34801561010257600080fd5b5061010b610411565b6040516101189190610850565b60405180910390f35b34801561012d57600080fd5b5061013661049f565b604051610143919061081a565b60405180910390f35b6101546104c9565b005b34801561016257600080fd5b5061017d60048036038101906101789190610672565b610541565b60405161018a919061081a565b60405180910390f35b600260009054906101000a900473ffffffffffffffffffffffffffffffffffffffff1681565b60008054906101000a900473ffffffffffffffffffffffffffffffffffffffff1681565b60008060009054906101000a900473ffffffffffffffffffffffffffffffffffffffff1673ffffffffffffffffffffffffffffffffffffffff163373ffffffffffffffffffffffffffffffffffffffff161461023857600080fd5b6000600180549050610248610580565b6102529190610975565b90506001818154811061028e577f4e487b7100000000000000000000000000000000000000000000000000000000600052603260045260246000fd5b9060005260206000200160009054906101000a900473ffffffffffffffffffffffffffffffffffffffff16600260006101000a81548173ffffffffffffffffffffffffffffffffffffffff021916908373ffffffffffffffffffffffffffffffffffffffff160217905550600260009054906101000a900473ffffffffffffffffffffffffffffffffffffffff1673ffffffffffffffffffffffffffffffffffffffff166108fc479081150290604051600060405180830381858888f19350505050158015610361573d6000803e3d6000fd5b50600067ffffffffffffffff8111156103a3577f4e487b7100000000000000000000000000000000000000000000000000000000600052604160045260246000fd5b6040519080825280602002602001820160405280156103d15781602001602082028036833780820191505090505b50600190805190602001906103e79291906105b6565b50600260009054906101000a900473ffffffffffffffffffffffffffffffffffffffff1691505090565b6060600180548060200260200160405190810160405280929190818152602001828054801561049557602002820191906000526020600020905b8160009054906101000a900473ffffffffffffffffffffffffffffffffffffffff1673ffffffffffffffffffffffffffffffffffffffff168152602001906001019080831161044b575b5050505050905090565b6000600260009054906101000a900473ffffffffffffffffffffffffffffffffffffffff16905090565b662386f26fc1000034116104dc57600080fd5b6001339080600181540180825580915050600190039060005260206000200160009091909190916101000a81548173ffffffffffffffffffffffffffffffffffffffff021916908373ffffffffffffffffffffffffffffffffffffffff160217905550565b6001818154811061055157600080fd5b906000526020600020016000915054906101000a900473ffffffffffffffffffffffffffffffffffffffff1681565b600044426001604051602001610598939291906107e1565b6040516020818303038152906040528051906020012060001c905090565b82805482825590600052602060002090810192821561062f579160200282015b8281111561062e5782518260006101000a81548173ffffffffffffffffffffffffffffffffffffffff021916908373ffffffffffffffffffffffffffffffffffffffff160217905550916020019190600101906105d6565b5b50905061063c9190610640565b5090565b5b80821115610659576000816000905550600101610641565b5090565b60008135905061066c816109f5565b92915050565b60006020828403121561068457600080fd5b60006106928482850161065d565b91505092915050565b60006106a783836106da565b60208301905092915050565b60006106bf83836106f8565b60208301905092915050565b6106d481610915565b82525050565b6106e381610903565b82525050565b6106f281610903565b82525050565b61070181610903565b82525050565b600061071282610897565b61071c81856108c7565b935061072783610872565b8060005b8381101561075857815161073f888261069b565b975061074a836108ad565b92505060018101905061072b565b5085935050505092915050565b6000610770826108a2565b61077a81856108d8565b935061078583610882565b8060005b838110156107bd5761079a826109d5565b6107a488826106b3565b97506107af836108ba565b925050600181019050610789565b5085935050505092915050565b6107db6107d682610947565b61096b565b82525050565b60006107ed82866107ca565b6020820191506107fd82856107ca565b60208201915061080d8284610765565b9150819050949350505050565b600060208201905061082f60008301846106e9565b92915050565b600060208201905061084a60008301846106cb565b92915050565b6000602082019050818103600083015261086a8184610707565b905092915050565b6000819050602082019050919050565b60008190508160005260206000209050919050565b600081519050919050565b600081549050919050565b6000602082019050919050565b6000600182019050919050565b600082825260208201905092915050565b600081905092915050565b600073ffffffffffffffffffffffffffffffffffffffff82169050919050565b600061090e82610927565b9050919050565b600061092082610927565b9050919050565b600073ffffffffffffffffffffffffffffffffffffffff82169050919050565b6000819050919050565b600061096461095f836109e8565b6108e3565b9050919050565b6000819050919050565b600061098082610947565b915061098b83610947565b92508261099b5761099a6109a6565b5b828206905092915050565b7f4e487b7100000000000000000000000000000000000000000000000000000000600052601260045260246000fd5b60006109e18254610951565b9050919050565b60008160001c9050919050565b6109fe81610947565b8114610a0957600080fd5b5056fea2646970667358221220908ab8b48d49165ff1b85f420f0effaa35644d085b509a144fa2cfa330213ffd64736f6c63430008000033",
  "linkReferences": {},
  "deployedLinkReferences": {}
}